:1000000009C016C015C014C013C012C011C010C062
:100010000FC00FC011241FBECFE9CDBF20E0A0E666
:10002000B0E001C01D92A236B207E1F711D0FDC0C9
:10003000E7CF8F938FB78F9385B1809360008091C6
:1000400061008160809361008F918FBF8F911895BF
:1000500087E088BB8BE087BB91B78CE4891B1816BF
:100060000CF060C0982F9595959595959595911163
:1000700051C091B78F70890F81BF81E287B98EE837
:1000800086B978948FEF92E527E081509040204028
:10009000E1F700C0000088B38C7F88BB88E198E05E
:1000A0000FB6F894A89581BD0FBE91BD369A90E029
:1000B00080E020E041E252E2A8953091610030FFFB
:1000C00067C0309161003E7F3093610037B1632F8C
:1000D000617030FF3EC030916000323D18F0213039
:1000E00009F05FC030916000383C38F43091600016
:1000F000353118F0223009F058C0309160003B30A3
:1001000008F042C03FEF320F3230F0F590E080E06F
:1001100025E03AC021B7205F21BF20E12A95F1F701
:100120009150A5CF882309F4A8CF87FD8195982FFA
:1001300092959F70911105C091B78F70981B892F70
:100140009BCF21B7205121BF30E13A95F1F7915073
:10015000F1CF30916000363520F03DEF320F323074
:10016000A8F2309160003C3430F4309160003531B9
:1001700010F02330F1F4309160003B3028F424304B
:1001800019F090E080E024E0389B17C057B9369A08
:10019000233071F1C8F4213011F1223029F120E02F
:1001A0008BCF262F90E080E0EFCF90E080E022E040
:1001B000EBCF90E080E023E0E7CF47B92111E7CF14
:1001C00090E080E025E0E3CF243011F5C398C0989B
:1001D000009791F08F3F3FE7930779F415C0C398DC
:1001E00038B3336038BB68CFC398C19AC09864CF26
:1001F000C398C098009729F4C19AC19B07C0019683
:100200005BCF8F3F9807C9F7C198F7CF019754CFBD
:100210008E3F2FEF920739F4C39AC09AC1988FEF9F
:0E0220009FEF25E049CF0196FCCFF894FFCF69
:00000001FF
